:060000000A128A11FC2F18
:100D1000F201F30171087302031D902E7008720234
:100D200003180800F401F501003075026E30031954
:100D300074020318A82E0130F4070318F50A0030D6
:100D4000F507003075026E3003197402031C9B2EE8
:100D50000130F2070318F30A0030F3078A2E8312DA
:100D60000313A0007608FA007A08A3007603FF3A7E
:100D70000A3EFA007A08A5007708FA007A08A4006B
:100D80007703FF3A0A3EFA007A08A6002008880096
:100D9000A101A20179082202031DD02E78082102A8
:100DA0000318080009142308FA00FB017A08F00070
:100DB0007B08F1000A128A1188260A128A11FE3075
:100DC000FA007A088312031389052508FA00FB014B
:100DD0007A08F0007B08F1000A128A1188260A12AC
:100DE0008A118312031389142408FA00FB017A087C
:100DF000F0007B08F1000A128A1188260A128A1173
:100E0000FD30FA007A088312031389052608FA00D8
:100E1000FB017A08F0007B08F1000A128A1188268B
:100E20000A128A11013083120313A1070318A20AC0
:100E30000030A207CA2E0630831603139F008801D4
:100E40008901FF3086008312031388018901831210
:100E5000031306080739FC007C08A700D92F0A30C5
:100E6000FC007C08F6000A30FD007D08F700013028
:100E7000F8000030F90050300A128A11AF260A1229
:100E80008A11F22F0A30FC007C08F6000830FD00C1
:100E90007D08F7000130F8000030F90090300A12A8
:100EA0008A11AF260A128A11F22F0830FC007C0842
:100EB000F6000A30FD007D08F7000130F800003030
:100EC000F90060300A128A11AF260A128A11F22F35
:100ED0000A30FC007C08F6000830FD007D08F700B1
:100EE0000130F8000030F90090300A128A11AF2664
:100EF0000A128A110830FC007C08F6000A30FD0056
:100F00007D08F7000130F8000030F90060300A1267
:100F10008A11AF260A128A11F22F0A30FC007C08CF
:100F2000F6000A30FD007D08F7000130F8000030BF
:100F3000F90050300A128A11AF260A128A11F22FD4
:100F40000830FC007C08F6000A30FD007D08F70040
:100F50000130F8000030F90060300A128A11AF2623
:100F60000A128A11F22F0A30FC007C08F6000830C1
:100F7000FD007D08F7000130F8000030F9009030E6
:100F80000A128A11AF260A128A11F22F0A30FC00C7
:100F90007C08F6000A30FD007D08F7000130F800FB
:100FA0000030F90050300A128A11AF260A128A1155
:100FB000F22F831203132708013A0319552F033A1E
:100FC00003192F2F013A0319A02F073A0319422FB3
:100FD000013A03198D2F033A0319B32F013A03196C
:100FE000682FC62F0A30F0000030F1000A128A1173
:100FF00088260A128A11272F83010A128A111B2FB1
:02400E0071FF40
:00000001FF
