:060000000A128A11FC2F18
:100F0C00F201F30171087302031D8E2F7008720237
:100F1C0003180800F401F501003075026E30031956
:100F2C0074020318A62F0130F4070318F50A0030D9
:100F3C00F507003075026E3003197402031C992FEB
:100F4C000130F2070318F30A0030F307882F06303C
:100F5C00831603139F0088018901FF3086008701E7
:100F6C008312031388018901870183120313060876
:100F7C000739F6007608F700DB2FD42FCE2FCA2FB7
:100F8C0089018801D22FD42F033089006030D12FF2
:100F9C0003308900903088008701F22F03308900DC
:100FAC005030880001308700F22F7708013A03197E
:100FBC00C52F033A0319C32F013A0319CA2F073A55
:100FCC000319C42F013A0319C92F033A0319CE2F61
:100FDC00013A0319C62FD42F0A30F0000030F1006B
:100FEC000A128A1186270A128A11BB2F83010A1250
:040FFC008A11AD2F7A
:02400E0071FF40
:00000001FF
